:100000000C945F000C9487000C9487000C9487007C
:100010000C9487000C9487000C9487000C94870044
:100020000C9487000C9487000C9487000C94870034
:100030000C9487000C9487000C9487000C94870024
:100040000C94DA030C9487000C941F070C9462073D
:100050000C9487000C9487000C9487000C94870004
:100060000C9487000C948700000000070002010038
:100070000003040600000000000000000102040864
:100080001020408001020408102001020408102002
:10009000040404040404040402020202020203032E
:1000A0000303030300000000250028002B000000CC
:1000B0000000240027002A00DA021808F2021124A6
:1000C0001FBECFEFD8E0DEBFCDBF11E0A0E0B1E0B2
:1000D000EEE5F9E102C005900D92A436B107D9F71B
:1000E00012E0A4E6B1E001C01D92A934B107E1F726
:1000F00010E0CCEBD0E004C02297FE010E94490C36
:10010000C83BD107C9F70E947A060C94A20C0C9444
:10011000000085E691E00E946E088CE691E00E9466
:100120006E0883E791E00E946E088AE791E00C94E4
:100130006E08E82F2FEF269FC001279F900D1124F6
:1001400064E670E00E94FD0BF0E0E75FFE4FE081A7
:10015000F0E0E15FFE4F80810C940305CF93C0E097
:1001600060E070E08C2F0E949900CF5FC630C1F72D
:10017000CF9108952F923F924F925F926F927F920C
:100180008F929F92AF92BF92CF92DF92EF92FF92A7
:100190000F931F93CF93DF9300D01F92CDB7DEB79D
:1001A0005C014B012901FB010481158101501109FA
:1001B000612C712CCC24CA94DC2C212C312CE12C08
:1001C000F12C7B826A82061517057CF14E145F04C0
:1001D0002CF16A817B81C40149830E949B092A8199
:1001E0003B812F5F3F4F4981841741F08A819B817A
:1001F0008017910719F0DB82CA820CC09FEFE91AC1
:10020000F90A1601EFEF2E1A3E0A6016710611F474
:100210003B832A833901CA80DB80D3CF9601A101B9
:10022000B401C5010E949D0908C04E145F04B4F3D7
:100230006DE371E0C5010E94DC08C5010F900F90CD
:100240000F90DF91CF911F910F91FF90EF90DF9072
:10025000CF90BF90AF909F908F907F906F905F9066
:100260004F903F902F9008950F931F93CF93DF935C
:1002700085B5887F816085BD80918100887F8160A0
:10028000809381008091B100887F81608093B1006C
:10029000CFE0D1E08E0161E089910E94940460E09A
:1002A00070E0F80180810E949900F1E0C531DF071C
:1002B00089F76EE170E08AE791E00E949F0840E0D4
:1002C00056E960E070E08BE991E0DF91CF911F91FA
:1002D0000F910C949D07CF92DF92EF92FF920F93B4
:1002E0001F93CF93DF93CDB7DEB72E970FB6F89459
:1002F000DEBF0FBECDBF6AE771E0CE0108960E9457
:100300000A0920E030E04BE3BE01685F7F4FCE0179
:1003100001960E94BA00BE016F5F7F4F83E791E0B4
:100320000E94F308CE0101960E946E08CE01089645
:100330000E946E086AE771E0CE0108960E940A09E1
:1003400021E030E04BE3BE01685F7F4FCE010196B4
:100350000E94BA00BE016F5F7F4F8CE691E00E9461
:10036000F308CE0101960E946E08CE0108960E9405
:100370006E086AE771E0CE0108960E940A0922E041
:1003800030E04BE3BE01685F7F4FCE0101960E94D3
:10039000BA00BE016F5F7F4F85E691E00E94F308CF
:1003A000CE0101960E946E08CE0108960E946E084A
:1003B0006BE171E083E791E00E946B09882379F09B
:1003C00085E691E00E94E2096B017C018CE691E0F8
:1003D0000E94E209862FB6010E949900DAC06FE1FF
:1003E00071E083E791E00E946B09882361F010E0DF
:1003F00085E691E00E94E209812F0E9499001F5F2B
:100400001630B1F7C6C064E271E083E791E00E9464
:100410006B09882309F169E271E08BE991E00E94A0
:10042000A0056EE271E08BE991E00E94A00562E315
:1004300071E08BE991E00E94A0054AE050E060E0A5
:1004400070E08BE991E00E9472066AE371E08BE94B
:1004500091E00E94A0059DC06AE471E083E791E00D
:100460000E946B09882381F08CE691E00E94E209EA
:1004700021E016161706180619060CF020E0622F68
:1004800084E00E94CD0485C06EE371E083E791E0D3
:100490000E946B09882319F08FEF9FEF7CC062E404
:1004A00071E083E791E00E946B098823A1F18CE65B
:1004B00091E00E94E20960930801673068F709E063
:1004C00011E0C801895091407C018091080190E0C1
:1004D000E816F9060CF05DC065E671E0CE010896FD
:1004E0000E940A0997014CE2BE01685F7F4FCE016E
:1004F00001960E94BA00CE0101960E94E209F8011D
:1005000061938F01CE0101960E946E08CE0108967C
:100510000E946E08D6CF65E471E083E791E00E9407
:100520006B098823D9F081E090E0909307018093D4
:1005300006018CE691E00E94E20970930501609348
:100540000401109203011092020185E691E00E94DD
:10055000E20970930101609300011BC069E471E03E
:1005600083E791E00E946B09882309F495CF8CE61C
:1005700091E00E94E209709303016093020121E07F
:10058000672B09F420E020939101211102C00E9401
:10059000AE0081E090E02E960FB6F894DEBF0FBE5D
:1005A000CDBFDF91CF911F910F91FF90EF90DF9022
:1005B000CF9008956DE371E08AE791E00E94DC0836
:1005C0006DE371E083E791E00E94DC086DE371E088
:1005D0008CE691E00E94DC086DE371E085E691E035
:1005E0000C94DC080C948900CF938BE991E00E9475
:1005F0008706892B79F08BE991E00E94B406C82F19
:10060000682F8AE791E00E945809CD3071F781E0A8
:1006100080936401CF9108950F931F930E94F40279
:10062000809164018823B1F00E946B0118161906AD
:100630001CF46DE471E002C060E571E08BE991E0CB
:100640000E94BD056DE371E08AE791E00E94140904
:100650001092640180919101882309F4A8C00E943E
:10066000240426E096958795779567952A95D1F786
:100670006093890170938A0180938B0190938C0120
:1006800000918501109186012091870130918801A8
:10069000DC01CB01801B910BA20BB30B809381017A
:1006A00090938201A0938301B0938401009104018F
:1006B00010910501222717FD2095322F08171907E1
:1006C0002A073B07A8F580918D0190918E01019733
:1006D00079F510928E0110928D0160E070E08091AA
:1006E0008F010E94990020910201309103018091B5
:1006F0008F0190919001121613067CF4209108014D
:1007000030E0215031098217930714F401960CC090
:100710001092900110928F010BC0181619061CF050
:100720008091080190E001979093900180938F0150
:1007300080910601909107012091040130910501FB
:10074000820F931FAA2797FDA095BA2F4091810190
:100750005091820160918301709184018417950703
:10076000A607B70720F580918D0190918E01892B06
:10077000F1F481E090E090938E0180938D0160917F
:1007800000017091010180918F010E949900809178
:10079000890190918A01A0918B01B0918C01809385
:1007A000850190938601A0938701B09388011F91E2
:1007B0000F9108951F920F920FB60F9211242F934D
:1007C0003F938F939F93AF93BF93809193019091A9
:1007D0009401A0919501B09196013091920126E08B
:1007E000230F2D3720F40296A11DB11D05C029E865
:1007F000230F0396A11DB11D2093920180939301B5
:1008000090939401A0939501B093960180919701E4
:1008100090919801A0919901B0919A010196A11D22
:10082000B11D8093970190939801A0939901B09383
:100830009A01BF91AF919F918F913F912F910F900E
:100840000FBE0F901F9018952FB7F89460919301E9
:100850007091940180919501909196012FBF089518
:10086000789484B5826084BD84B5816084BD85B58B
:10087000826085BD85B5816085BDEEE6F0E0808152
:1008800081608083E1E8F0E0108280818260808373
:10089000808181608083E0E8F0E0808181608083F6
:1008A000E1EBF0E0808184608083E0EBF0E0808128
:1008B00081608083EAE7F0E08081846080838081CA
:1008C0008260808380818160808380818068808372
:1008D0001092C1000895833081F028F4813099F09E
:1008E0008230A1F008958630A9F08730B9F08430C5
:1008F000D1F4809180008F7D03C0809180008F773C
:1009000080938000089584B58F7702C084B58F7D71
:1009100084BD08958091B0008F7703C08091B000AE
:100920008F7D8093B0000895CF93DF9390E0FC011A
:10093000E458FF4F2491FC01E057FF4F8491882336
:1009400049F190E0880F991FFC01E255FF4FA591F6
:10095000B4918C559F4FFC01C591D4919FB7611103
:1009600008C0F8948C91209582238C9388818223EF
:100970000AC0623051F4F8948C91322F3095832361
:100980008C938881822B888304C0F8948C91822B6D
:100990008C939FBFDF91CF9108950F931F93CF93B7
:1009A000DF931F92CDB7DEB7282F30E0F901E85969
:1009B000FF4F8491F901E458FF4F1491F901E0577A
:1009C000FF4F04910023C9F0882321F069830E941E
:1009D0006B046981E02FF0E0EE0FFF1FEC55FF4F35
:1009E000A591B4919FB7F8948C91611103C01095B3
:1009F000812301C0812B8C939FBF0F90DF91CF91FA
:100A00001F910F9108951F93CF93DF93182FEB0140
:100A100061E00E949404209711F460E004C0CF3F8D
:100A2000D10539F461E0812FDF91CF911F910C94B2
:100A3000CD04E12FF0E0E859FF4FE491E330F9F005
:100A400048F4E130B9F0E230A1F584B5806284BDAC
:100A5000C8BD34C0E630E9F0E73019F1E43049F5BB
:100A600080918000806280938000D0938B00C0933F
:100A70008A0024C084B5806884BDC7BD1FC0809132
:100A80008000806880938000D0938900C0938800A4
:100A900015C08091B00080688093B000C093B3000F
:100AA0000DC08091B00080628093B000C093B4000C
:100AB00005C0C038D1050CF0B5CFAFCFDF91CF91D5
:100AC0001F910895CF92DF92EF92FF920F931F93A1
:100AD000CF93DF936C017A01EB01E60EF71E00E085
:100AE00010E0CE15DF0561F06991D601ED91FC9122
:100AF0000190F081E02DC6010995080F191FF1CF73
:100B0000C801DF91CF911F910F91FF90EF90DF907F
:100B1000CF9008956115710581F0DB010D900020E3
:100B2000E9F7AD0141505109461B570BDC01ED912E
:100B3000FC910280F381E02D099480E090E008951B
:100B40000C948A05DC01ED91FC910190F081E02D7F
:100B500009940F931F93CF93DF93EC016DE00E94F4
:100B6000A2058C016AE0CE010E94A205800F911FB0
:100B7000DF91CF911F910F9108950F931F93CF9302
:100B8000DF93EC010E948A058C01CE010E94A90529
:100B9000800F911FDF91CF911F910F9108958F9238
:100BA0009F92AF92BF92CF92DF92EF92FF920F93FC
:100BB0001F93CF93DF93CDB7DEB7A1970FB6F8940D
:100BC000DEBF0FBECDBF7C01C42EE52FCB01D22EE0
:100BD00019A221E02D1510F02AE0D22E8E010F5D12
:100BE0001F4F8D2C912CA12CB12C6C2D7E2FA5018B
:100BF00094010E94110C8C2DD29E80191124015059
:100C000011098A3014F4805D01C0895CF801808389
:100C1000211531054105510521F0C22EE32FCA01EE
:100C2000E4CFB801C7010E948A05A1960FB6F894D7
:100C3000DEBF0FBECDBFDF91CF911F910F91FF900F
:100C4000EF90DF90CF90BF90AF909F908F900895DE
:100C5000CF92DF92EF92FF920F931F93CF93DF9388
:100C6000EC016A017B012115310579F4E881F981F4
:100C70000190F081E02D642FDF91CF911F910F91B2
:100C8000FF90EF90DF90CF9009942A303105E9F47E
:100C900077FF1AC06DE20E94A2058C0144275527F8
:100CA000BA014C195D096E097F092AE0CE010E9444
:100CB000CF05800F911FDF91CF911F910F91FF9072
:100CC000EF90DF90CF9008952AE0B701A601CE0102
:100CD000DF91CF911F910F91FF90EF90DF90CF9018
:100CE0000C94CF059A01AB01662757FD6095762FCE
:100CF0000C9428060E9430040E943401C9E5D7E014
:100D00000E940C032097E1F30E945907F9CFFC01E0
:100D100024853585F901E05CFF4F80819181F901DF
:100D2000EE5BFF4F20813181821B930B8F739927DC
:100D30000895FC0184859585FC01E05CFF4F4081AE
:100D40005181FC01EE5BFF4F208131814217530737
:100D500041F00190F081E02DE80FF91F808190E0D3
:100D600008958FEF9FEF0895FC0184859585FC0120
:100D7000E05CFF4F40815181FC01EE5BFF4F208121
:100D800031814217530779F0A081B181A80FB91FB3
:100D90008C91208131812F5F3F4F2F733327318317
:100DA000208390E008958FEF9FEF0895FC0181A1CB
:100DB000882329F0A489B5898C9186FFFBCF11A2E5
:100DC0000895CF93DF93FC0126853785D901A05C78
:100DD000BF4F8D919C91119701968F739927E901CF
:100DE000CE5BDF4F4881598184179507D9F30D9069
:100DF000BC91A02DA20FB31F6C93A685B785A05CF4
:100E0000BF4F11969C938E93A689B7892C9181E050
:100E100090E0078C02C0880F991F0A94E2F7282BF4
:100E20002C9381E081A30488F589E02D8081806482
:100E3000808381E090E0DF91CF91089508951F9223
:100E40000F920FB60F9211242F933F934F938F93CE
:100E50009F93EF93FF938091C00082FD1CC040914F
:100E6000C600809141029091420201968F739927AA
:100E700020914302309144028217930771F0E09170
:100E80004102F0914202EF5FFD4F40839093420296
:100E90008093410202C08091C600FF91EF919F9123
:100EA0008F914F913F912F910F900FBE0F901F90F8
:100EB00018958BE991E00E948706892B11F00C941C
:100EC0001E0708951F920F920FB60F9211242F93B1
:100ED0003F938F939F93EF93FF932091FD01309168
:100EE000FE018091FF01909100022817390731F42B
:100EF0008091C1008F7D8093C10014C0E091FF01FB
:100F0000F0910002E354FE4F20818091FF01909107
:100F1000000201968F739927909300028093FF013E
:100F20002093C600FF91EF919F918F913F912F9158
:100F30000F900FBE0F901F901895CF92DF92EF92F7
:100F4000FF92CF93DF93EC016A017B01EC89FD896D
:100F500081E090E008A002C0880F991F0A94E2F790
:100F6000808360E874E88EE190E0A70196010E941A
:100F7000110C215031094109510956954795379572
:100F80002795211580E1380798F0EC89FD891082BA
:100F900060E472E48FE090E0A70196010E94110CDA
:100FA00021503109410951095695479537952795A3
:100FB000E889F9893083EA89FB89208319A2EE89BF
:100FC000FF89408181E090E09C010C8C02C0220FDF
:100FD000331F0A94E2F7422B4083EE89FF89408158
:100FE0009C010D8C02C0220F331F0A94E2F7422BA2
:100FF0004083EE89FF8940819C010E8C02C0220F44
:10100000331F0A94E2F7422B4083EE89FF89208147
:101010000F8C02C0880F991F0A94E2F780958223F3
:101020008083DF91CF91FF90EF90DF90CF90089574
:1010300010929E0110929D0188EE93E0A0E0B0E036
:1010400080939F019093A001A093A101B093A2016E
:1010500088E591E090939C0180939B0181E092E070
:101060009093A8018093A7018DEB91E09093AA0142
:101070008093A90185EC90E09093AC018093AB0143
:1010800084EC90E09093AE018093AD0180EC90E011
:101090009093B0018093AF0181EC90E09093B20106
:1010A0008093B10182EC90E09093B4018093B301FE
:1010B00086EC90E09093B6018093B50184E0809334
:1010C000B70183E08093B80187E08093B90185E0A0
:1010D0008093BA0181E08093BB010895FC01808177
:1010E00091810C946E0BCF93DF93EC0188819981F1
:1010F000009711F00E946E0B198218821D821C82CB
:101100001B821A82DF91CF9108950F931F93CF9383
:10111000DF93EC018B016F5F7F4F888199810E9483
:10112000ED09009731F0998388831B830A8381E05E
:1011300001C080E0DF91CF911F910F910895CF936F
:10114000DF93EC0188819981892B29F08A819B8129
:101150008617970760F4CE010E948508882341F026
:101160008C819D81892B19F4E881F981108281E0BD
:10117000DF91CF910895EF92FF920F931F93CF933A
:10118000DF93EC017B018A01BA010E949F08811163
:1011900004C0CE010E94730807C01D830C83B701F1
:1011A000888199810E94860CCE01DF91CF911F9199
:1011B0000F91FF90EF900895FC011182108213822D
:1011C00012821582148216826115710559F0FB0195
:1011D00001900020E9F7AF0141505109461B570B20
:1011E0000C94BB080895CF93DF93EC01FB018617A5
:1011F000970761F0608171816115710529F0448163
:1012000055810E94BB0802C00E947308CE01DF9185
:10121000CF910895FC0111821082138212821582EF
:10122000148216820C94F308CF93DF93EC016115BE
:10123000710561F0FB0101900020E9F7AF01415019
:101240005109461B570B0E94BB0802C00E9473083D
:10125000CE01DF91CF910895EF92FF920F931F93EC
:10126000CF93DF93EC017B010C811D81611571052A
:1012700011F480E016C04115510591F0040F151FBF
:10128000B8010E949F088823A1F3288139818C81AD
:101290009D81B701820F931F0E94860C1D830C83D2
:1012A00081E0DF91CF911F910F91FF90EF90089512
:1012B000CF93DF9300D0CDB7DEB769831A8241E0C8
:1012C00050E0BE016F5F7F4F0E942C090F900F907E
:1012D000DF91CF910895FC0124813581232B31F4D6
:1012E00021E061157105A1F0FB0108C0FC018081BE
:1012F00091816115710531F421E0FC018081882321
:1013000039F005C00E947D0C21E0892B09F020E016
:10131000822F0895FC01248135816217730748F4F8
:1013200080819181009729F0FC01E60FF71F8081F1
:10133000089580E008950C948A09BF92CF92DF92BD
:10134000EF92FF920F931F93CF93DF936C017B017A
:10135000EA0189012417350720F48D2FE901042FB4
:10136000182F6DE371E0C6010E94DC08D7011496C6
:101370008D919C9115978C179D07C8F08017910748
:1013800008F48C01D701ED91FC911197E00FF11F4A
:10139000B08010826D917C916C0F7D1FC6010E9400
:1013A0001409D701ED91FC91E00FF11FB082C60145
:1013B000DF91CF911F910F91FF90EF90DF90CF9031
:1013C000BF900895FC0180819181009711F00C94E9
:1013D0004D0C60E070E0CB0108956F927F928F9288
:1013E0009F92AF92BF92CF92DF92EF92FF920F93B4
:1013F0001F93CF93DF93EC01CB01209781F4DF9112
:10140000CF911F910F91FF90EF90DF90CF90BF9001
:10141000AF909F908F907F906F900C94D60AFE01B2
:10142000E60FF71F9E0122503109E217F30708F477
:10143000ACC0D9010D911C91119706171707B8F090
:101440000530110508F49FC0A80144505109461702
:10145000570708F498C002501109061B170B019397
:1014600011936D937C93CF010E946E0B8CC05B0136
:10147000A01AB10A4E01800E911EA0914702B091B0
:101480004802612C712C60E070E0109709F449C0AB
:10149000A815B905C9F5ED90FC901197670142E0D8
:1014A000C40ED11CCA14DB0478F147018A189B08CA
:1014B000640142E0C40ED11C1296BC9012971396A0
:1014C000AC91B5E0CB16D10440F0B282A3839182F7
:1014D0008082D9018D939C9309C00E5F1F4F0E0D22
:1014E0001F1DF90111830083EB2DFA2F6115710582
:1014F00031F0DB011396FC93EE93129744C0F09306
:101500004802E09347023FC06D917C9111976616A7
:10151000770608F43B01BD0112960D90BC91A02DF9
:10152000B4CF609145027091460268157905E9F4DF
:1015300068167906D0F440911501509116014115B5
:10154000510541F44DB75EB76091190170911A01D0
:10155000461B570BE417F507C0F4F0934602E093DF
:101560004502F901918380830EC00E94D60A7C0156
:10157000009759F0A801BE010E94740CCE010E9490
:101580006E0BC70104C0CE0102C080E090E0DF9185
:10159000CF911F910F91FF90EF90DF90CF90BF9070
:1015A000AF909F908F907F906F900895CF93DF932F
:1015B0008230910510F482E090E0E0914702F091D2
:1015C000480220E030E0A0E0B0E0309739F14081FF
:1015D000518148175907B8F04817590771F48281AB
:1015E0009381109729F013969C938E9312972CC099
:1015F000909348028093470227C02115310531F0AE
:101600004217530718F0A901DB0101C0EF019A014D
:10161000BD01DF010280F381E02DD7CF2115310517
:10162000F9F0281B390B2430310580F48A819B8125
:101630006115710521F0FB019383828304C09093AF
:10164000480280934702FE01329644C0FE01E20F39
:10165000F31F8193919322503109398328833AC033
:101660002091450230914602232B41F4209117012D
:1016700030911801309346022093450220911501C4
:10168000309116012115310541F42DB73EB7409137
:10169000190150911A01241B350BE0914502F0917C
:1016A0004602E217F307A0F42E1B3F0B2817390759
:1016B00078F0AC014E5F5F4F2417350748F04E0FAE
:1016C0005F1F50934602409345028193919302C05D
:1016D000E0E0F0E0CF01DF91CF910895CF93DF9369
:1016E000009709F487C0FC01329713821282C091DF
:1016F0004702D0914802209781F420813181280F40
:10170000391F80914502909146028217930779F51F
:10171000F0934602E09345026DC0DE0120E030E028
:10172000AE17BF0750F412964D915C9113979D012F
:101730004115510509F1DA01F3CFB383A28340814A
:101740005181840F951F8A179B0771F48D919C918D
:101750001197840F951F02969183808312968D9125
:101760009C911397938382832115310529F4F0937B
:101770004802E09347023EC0D9011396FC93EE93D2
:1017800012974D915D91A40FB51FEA17FB0779F4ED
:1017900080819181840F951F0296D90111969C93A7
:1017A0008E938281938113969C938E931297E0E09F
:1017B000F0E08A819B81009719F0FE01EC01F9CFDE
:1017C000CE01029628813981820F931F2091450214
:1017D000309146022817390769F4309729F410929E
:1017E00048021092470202C013821282D09346022E
:1017F000C0934502DF91CF91089597FB072E16F411
:10180000009407D077FD09D00E94330C07FC05D067
:101810003EF4909581959F4F0895709561957F4F07
:101820000895A1E21A2EAA1BBB1BFD010DC0AA1F21
:10183000BB1FEE1FFF1FA217B307E407F50720F039
:10184000A21BB30BE40BF50B661F771F881F991FB4
:101850001A9469F760957095809590959B01AC01FD
:10186000BD01CF010895AA1BBB1B51E107C0AA1FF0
:10187000BB1FA617B70710F0A61BB70B881F991F31
:101880005A95A9F780959095BC01CD010895EE0F6A
:10189000FF1F0590F491E02D09941F93FC019927F7
:1018A0008827BC01E89411911032E9F3193010F047
:1018B0001E30C8F31B3251F01D3249F4689406C043
:1018C0000E948D0C610F711D811D911D119110538E
:1018D0001A30B0F33EF490958095709561957F4FE6
:1018E0008F4F9F4F1F910895FB01DC0102C00190B3
:1018F0000D9241505040D8F70895FB01DC018D91C5
:10190000019080190110D9F3990B0895FB01DC01B6
:1019100001900D920020E1F70895592F482F372F9D
:10192000262F660F771F881F991F660F771F881F46
:10193000991F620F731F841F951F660F771F881FE3
:10194000991F089510E0CCEBD0E004C0FE010E9486
:0E195000490C2296CE3BD107C9F7F894FFCF81
:10195E00320001000100010006030400050201032C
:10196E000506090A0B000049028000534554005336
:10197E0045544100494E464F0046573A2000322EFC
:10198E00320020204452563A2000202A20004C5289
:10199E0041005351005732500057454E004F4B00F7
:1019AE004552520000000000E10662058706B406AB
:0419BE009906D606AA
:00000001FF
